{
  "contractName": "Library",
  "abi": [
    {
      "inputs": [],
      "stateMutability": "nonpayable",
      "type": "constructor"
    },
    {
      "anonymous": false,
      "inputs": [
        {
          "indexed": true,
          "internalType": "uint256",
          "name": "bookId",
          "type": "uint256"
        },
        {
          "indexed": false,
          "internalType": "string",
          "name": "ipfsHash",
          "type": "string"
        },
        {
          "indexed": false,
          "internalType": "uint256",
          "name": "stock",
          "type": "uint256"
        },
        {
          "indexed": false,
          "internalType": "uint256",
          "name": "timestamp",
          "type": "uint256"
        }
      ],
      "name": "BookAdded",
      "type": "event"
    },
    {
      "anonymous": false,
      "inputs": [
        {
          "indexed": true,
          "internalType": "uint256",
          "name": "borrowId",
          "type": "uint256"
        },
        {
          "indexed": true,
          "internalType": "address",
          "name": "borrower",
          "type": "address"
        },
        {
          "indexed": true,
          "internalType": "uint256",
          "name": "bookId",
          "type": "uint256"
        },
        {
          "indexed": false,
          "internalType": "uint256",
          "name": "timestamp",
          "type": "uint256"
        },
        {
          "indexed": false,
          "internalType": "uint256",
          "name": "deposit",
          "type": "uint256"
        },
        {
          "indexed": false,
          "internalType": "uint256",
          "name": "dueDate",
          "type": "uint256"
        }
      ],
      "name": "BookBorrowed",
      "type": "event"
    },
    {
      "anonymous": false,
      "inputs": [
        {
          "indexed": true,
          "internalType": "uint256",
          "name": "borrowId",
          "type": "uint256"
        },
        {
          "indexed": true,
          "internalType": "address",
          "name": "borrower",
          "type": "address"
        },
        {
          "indexed": true,
          "internalType": "uint256",
          "name": "bookId",
          "type": "uint256"
        },
        {
          "indexed": false,
          "internalType": "uint256",
          "name": "timestamp",
          "type": "uint256"
        },
        {
          "indexed": false,
          "internalType": "uint256",
          "name": "refundAmount",
          "type": "uint256"
        }
      ],
      "name": "BookReturned",
      "type": "event"
    },
    {
      "anonymous": false,
      "inputs": [
        {
          "indexed": true,
          "internalType": "address",
          "name": "memberAddress",
          "type": "address"
        },
        {
          "indexed": false,
          "internalType": "string",
          "name": "name",
          "type": "string"
        },
        {
          "indexed": false,
          "internalType": "uint256",
          "name": "timestamp",
          "type": "uint256"
        }
      ],
      "name": "MemberRegistered",
      "type": "event"
    },
    {
      "anonymous": false,
      "inputs": [
        {
          "indexed": true,
          "internalType": "uint256",
          "name": "bookId",
          "type": "uint256"
        },
        {
          "indexed": false,
          "internalType": "uint256",
          "name": "newStock",
          "type": "uint256"
        }
      ],
      "name": "StockUpdated",
      "type": "event"
    },
    {
      "inputs": [],
      "name": "BORROW_DURATION",
      "outputs": [
        {
          "internalType": "uint256",
          "name": "",
          "type": "uint256"
        }
      ],
      "stateMutability": "view",
      "type": "function"
    },
    {
      "inputs": [],
      "name": "DEPOSIT_PER_MINUTE",
      "outputs": [
        {
          "internalType": "uint256",
          "name": "",
          "type": "uint256"
        }
      ],
      "stateMutability": "view",
      "type": "function"
    },
    {
      "inputs": [],
      "name": "admin",
      "outputs": [
        {
          "internalType": "address",
          "name": "",
          "type": "address"
        }
      ],
      "stateMutability": "view",
      "type": "function"
    },
    {
      "inputs": [],
      "name": "bookCount",
      "outputs": [
        {
          "internalType": "uint256",
          "name": "",
          "type": "uint256"
        }
      ],
      "stateMutability": "view",
      "type": "function"
    },
    {
      "inputs": [
        {
          "internalType": "uint256",
          "name": "",
          "type": "uint256"
        }
      ],
      "name": "books",
      "outputs": [
        {
          "internalType": "uint256",
          "name": "id",
          "type": "uint256"
        },
        {
          "internalType": "string",
          "name": "ipfsHash",
          "type": "string"
        },
        {
          "internalType": "uint256",
          "name": "stock",
          "type": "uint256"
        },
        {
          "internalType": "uint256",
          "name": "totalCopies",
          "type": "uint256"
        },
        {
          "internalType": "bool",
          "name": "exists",
          "type": "bool"
        },
        {
          "internalType": "uint256",
          "name": "addedAt",
          "type": "uint256"
        }
      ],
      "stateMutability": "view",
      "type": "function"
    },
    {
      "inputs": [],
      "name": "borrowCount",
      "outputs": [
        {
          "internalType": "uint256",
          "name": "",
          "type": "uint256"
        }
      ],
      "stateMutability": "view",
      "type": "function"
    },
    {
      "inputs": [
        {
          "internalType": "uint256",
          "name": "",
          "type": "uint256"
        }
      ],
      "name": "borrowHistory",
      "outputs": [
        {
          "internalType": "uint256",
          "name": "borrowId",
          "type": "uint256"
        },
        {
          "internalType": "address",
          "name": "borrower",
          "type": "address"
        },
        {
          "internalType": "uint256",
          "name": "bookId",
          "type": "uint256"
        },
        {
          "internalType": "uint256",
          "name": "borrowTime",
          "type": "uint256"
        },
        {
          "internalType": "uint256",
          "name": "returnTime",
          "type": "uint256"
        },
        {
          "internalType": "bool",
          "name": "returned",
          "type": "bool"
        },
        {
          "internalType": "uint256",
          "name": "dueDate",
          "type": "uint256"
        },
        {
          "internalType": "uint256",
          "name": "deposit",
          "type": "uint256"
        }
      ],
      "stateMutability": "view",
      "type": "function"
    },
    {
      "inputs": [
        {
          "internalType": "address",
          "name": "",
          "type": "address"
        }
      ],
      "name": "currentBorrow",
      "outputs": [
        {
          "internalType": "uint256",
          "name": "",
          "type": "uint256"
        }
      ],
      "stateMutability": "view",
      "type": "function"
    },
    {
      "inputs": [
        {
          "internalType": "address",
          "name": "",
          "type": "address"
        }
      ],
      "name": "deposits",
      "outputs": [
        {
          "internalType": "uint256",
          "name": "",
          "type": "uint256"
        }
      ],
      "stateMutability": "view",
      "type": "function"
    },
    {
      "inputs": [],
      "name": "memberCount",
      "outputs": [
        {
          "internalType": "uint256",
          "name": "",
          "type": "uint256"
        }
      ],
      "stateMutability": "view",
      "type": "function"
    },
    {
      "inputs": [
        {
          "internalType": "address",
          "name": "",
          "type": "address"
        }
      ],
      "name": "members",
      "outputs": [
        {
          "internalType": "address",
          "name": "memberAddress",
          "type": "address"
        },
        {
          "internalType": "string",
          "name": "name",
          "type": "string"
        },
        {
          "internalType": "bool",
          "name": "isRegistered",
          "type": "bool"
        },
        {
          "internalType": "uint256",
          "name": "registeredAt",
          "type": "uint256"
        },
        {
          "internalType": "uint256",
          "name": "totalBorrowed",
          "type": "uint256"
        }
      ],
      "stateMutability": "view",
      "type": "function"
    },
    {
      "inputs": [
        {
          "internalType": "string",
          "name": "_ipfsHash",
          "type": "string"
        },
        {
          "internalType": "uint256",
          "name": "_stock",
          "type": "uint256"
        }
      ],
      "name": "addBook",
      "outputs": [],
      "stateMutability": "nonpayable",
      "type": "function"
    },
    {
      "inputs": [
        {
          "internalType": "uint256",
          "name": "_bookId",
          "type": "uint256"
        },
        {
          "internalType": "uint256",
          "name": "_newStock",
          "type": "uint256"
        }
      ],
      "name": "updateBookStock",
      "outputs": [],
      "stateMutability": "nonpayable",
      "type": "function"
    },
    {
      "inputs": [
        {
          "internalType": "uint256",
          "name": "_bookId",
          "type": "uint256"
        }
      ],
      "name": "getBook",
      "outputs": [
        {
          "components": [
            {
              "internalType": "uint256",
              "name": "id",
              "type": "uint256"
            },
            {
              "internalType": "string",
              "name": "ipfsHash",
              "type": "string"
            },
            {
              "internalType": "uint256",
              "name": "stock",
              "type": "uint256"
            },
            {
              "internalType": "uint256",
              "name": "totalCopies",
              "type": "uint256"
            },
            {
              "internalType": "bool",
              "name": "exists",
              "type": "bool"
            },
            {
              "internalType": "uint256",
              "name": "addedAt",
              "type": "uint256"
            }
          ],
          "internalType": "struct Library.Book",
          "name": "",
          "type": "tuple"
        }
      ],
      "stateMutability": "view",
      "type": "function"
    },
    {
      "inputs": [],
      "name": "getAllBookIds",
      "outputs": [
        {
          "internalType": "uint256[]",
          "name": "",
          "type": "uint256[]"
        }
      ],
      "stateMutability": "view",
      "type": "function"
    },
    {
      "inputs": [
        {
          "internalType": "string",
          "name": "_name",
          "type": "string"
        }
      ],
      "name": "registerMember",
      "outputs": [],
      "stateMutability": "nonpayable",
      "type": "function"
    },
    {
      "inputs": [
        {
          "internalType": "address",
          "name": "_memberAddress",
          "type": "address"
        }
      ],
      "name": "getMember",
      "outputs": [
        {
          "components": [
            {
              "internalType": "address",
              "name": "memberAddress",
              "type": "address"
            },
            {
              "internalType": "string",
              "name": "name",
              "type": "string"
            },
            {
              "internalType": "bool",
              "name": "isRegistered",
              "type": "bool"
            },
            {
              "internalType": "uint256",
              "name": "registeredAt",
              "type": "uint256"
            },
            {
              "internalType": "uint256",
              "name": "totalBorrowed",
              "type": "uint256"
            }
          ],
          "internalType": "struct Library.Member",
          "name": "",
          "type": "tuple"
        }
      ],
      "stateMutability": "view",
      "type": "function"
    },
    {
      "inputs": [
        {
          "internalType": "address",
          "name": "_memberAddress",
          "type": "address"
        }
      ],
      "name": "isMember",
      "outputs": [
        {
          "internalType": "bool",
          "name": "",
          "type": "bool"
        }
      ],
      "stateMutability": "view",
      "type": "function"
    },
    {
      "inputs": [
        {
          "internalType": "uint256",
          "name": "_bookId",
          "type": "uint256"
        }
      ],
      "name": "borrowBook",
      "outputs": [],
      "stateMutability": "payable",
      "type": "function"
    },
    {
      "inputs": [
        {
          "internalType": "uint256",
          "name": "_bookId",
          "type": "uint256"
        }
      ],
      "name": "returnBook",
      "outputs": [],
      "stateMutability": "nonpayable",
      "type": "function"
    },
    {
      "inputs": [
        {
          "internalType": "address",
          "name": "_memberAddress",
          "type": "address"
        }
      ],
      "name": "getCurrentBorrow",
      "outputs": [
        {
          "internalType": "uint256",
          "name": "",
          "type": "uint256"
        }
      ],
      "stateMutability": "view",
      "type": "function"
    },
    {
      "inputs": [],
      "name": "getAllBorrowHistory",
      "outputs": [
        {
          "components": [
            {
              "internalType": "uint256",
              "name": "borrowId",
              "type": "uint256"
            },
            {
              "internalType": "address",
              "name": "borrower",
              "type": "address"
            },
            {
              "internalType": "uint256",
              "name": "bookId",
              "type": "uint256"
            },
            {
              "internalType": "uint256",
              "name": "borrowTime",
              "type": "uint256"
            },
            {
              "internalType": "uint256",
              "name": "returnTime",
              "type": "uint256"
            },
            {
              "internalType": "bool",
              "name": "returned",
              "type": "bool"
            },
            {
              "internalType": "uint256",
              "name": "dueDate",
              "type": "uint256"
            },
            {
              "internalType": "uint256",
              "name": "deposit",
              "type": "uint256"
            }
          ],
          "internalType": "struct Library.BorrowHistory[]",
          "name": "",
          "type": "tuple[]"
        }
      ],
      "stateMutability": "view",
      "type": "function"
    },
    {
      "inputs": [
        {
          "internalType": "address",
          "name": "_memberAddress",
          "type": "address"
        }
      ],
      "name": "getMemberBorrowHistory",
      "outputs": [
        {
          "components": [
            {
              "internalType": "uint256",
              "name": "borrowId",
              "type": "uint256"
            },
            {
              "internalType": "address",
              "name": "borrower",
              "type": "address"
            },
            {
              "internalType": "uint256",
              "name": "bookId",
              "type": "uint256"
            },
            {
              "internalType": "uint256",
              "name": "borrowTime",
              "type": "uint256"
            },
            {
              "internalType": "uint256",
              "name": "returnTime",
              "type": "uint256"
            },
            {
              "internalType": "bool",
              "name": "returned",
              "type": "bool"
            },
            {
              "internalType": "uint256",
              "name": "dueDate",
              "type": "uint256"
            },
            {
              "internalType": "uint256",
              "name": "deposit",
              "type": "uint256"
            }
          ],
          "internalType": "struct Library.BorrowHistory[]",
          "name": "",
          "type": "tuple[]"
        }
      ],
      "stateMutability": "view",
      "type": "function"
    },
    {
      "inputs": [
        {
          "internalType": "uint256",
          "name": "_bookId",
          "type": "uint256"
        }
      ],
      "name": "getBookBorrowHistory",
      "outputs": [
        {
          "components": [
            {
              "internalType": "uint256",
              "name": "borrowId",
              "type": "uint256"
            },
            {
              "internalType": "address",
              "name": "borrower",
              "type": "address"
            },
            {
              "internalType": "uint256",
              "name": "bookId",
              "type": "uint256"
            },
            {
              "internalType": "uint256",
              "name": "borrowTime",
              "type": "uint256"
            },
            {
              "internalType": "uint256",
              "name": "returnTime",
              "type": "uint256"
            },
            {
              "internalType": "bool",
              "name": "returned",
              "type": "bool"
            },
            {
              "internalType": "uint256",
              "name": "dueDate",
              "type": "uint256"
            },
            {
              "internalType": "uint256",
              "name": "deposit",
              "type": "uint256"
            }
          ],
          "internalType": "struct Library.BorrowHistory[]",
          "name": "",
          "type": "tuple[]"
        }
      ],
      "stateMutability": "view",
      "type": "function"
    },
    {
      "inputs": [],
      "name": "calculateRequiredDeposit",
      "outputs": [
        {
          "internalType": "uint256",
          "name": "",
          "type": "uint256"
        }
      ],
      "stateMutability": "pure",
      "type": "function"
    },
    {
      "inputs": [
        {
          "internalType": "address",
          "name": "_memberAddress",
          "type": "address"
        }
      ],
      "name": "isOverdue",
      "outputs": [
        {
          "internalType": "bool",
          "name": "",
          "type": "bool"
        }
      ],
      "stateMutability": "view",
      "type": "function"
    },
    {
      "inputs": [
        {
          "internalType": "address",
          "name": "_memberAddress",
          "type": "address"
        }
      ],
      "name": "getDueDate",
      "outputs": [
        {
          "internalType": "uint256",
          "name": "",
          "type": "uint256"
        }
      ],
      "stateMutability": "view",
      "type": "function"
    },
    {
      "inputs": [
        {
          "internalType": "address",
          "name": "_newAdmin",
          "type": "address"
        }
      ],
      "name": "transferAdmin",
      "outputs": [],
      "stateMutability": "nonpayable",
      "type": "function"
    },
    {
      "inputs": [],
      "name": "getLibraryStats",
      "outputs": [
        {
          "internalType": "uint256",
          "name": "",
          "type": "uint256"
        },
        {
          "internalType": "uint256",
          "name": "",
          "type": "uint256"
        },
        {
          "internalType": "uint256",
          "name": "",
          "type": "uint256"
        },
        {
          "internalType": "uint256",
          "name": "",
          "type": "uint256"
        }
      ],
      "stateMutability": "view",
      "type": "function"
    }
  ],
  "bytecode": "0x608060405234801561000f575f80fd5b50335f806101000a81548173ffffffffffffffffffffffffffffffffffffffff021916908373ffffffffffffffffffffffffffffffffffffffff1602179055505f6001819055505f6002819055505f600381905550613da4806100715f395ff3fe6080604052600436106101c1575f3560e01c80639e24e6e6116100f6578063c5fd30db11610094578063e07cdbef11610063578063e07cdbef146106a0578063e0ff5b8b146106ca578063f851a44014610706578063fc7e286d14610730576101c1565b8063c5fd30db146105d6578063ca5140c914610612578063d2f8c7611461063a578063d5eb043114610676576101c1565b8063a5871d91116100d0578063a5871d911461051e578063b905ad7814610546578063bb54915c14610570578063c47ff60d1461059a576101c1565b80639e24e6e614610463578063a13a685e1461049f578063a230c524146104e2576101c1565b80636bff31c3116101635780637e490a9e1161013d5780637e490a9e146103a75780637f16ab80146103c357806381e95d46146103ff57806385e19c181461043b576101c1565b80636bff31c31461032b578063719295bc1461035557806375829def1461037f576101c1565b80632ada25961161019f5780632ada25961461025c578063637a387214610298578063647c9ed0146102c057806368744046146102ea576101c1565b806308ae4b0c146101c557806311aee3801461020557806329a66baf1461022f575b5f80fd5b3480156101d0575f80fd5b506101eb60048036038101906101e691906128e9565b61076c565b6040516101fc9594939291906129df565b60405180910390f35b348015610210575f80fd5b5061021961084f565b6040516102269190612a37565b60405180910390f35b34801561023a575f80fd5b50610243610855565b6040516102539493929190612a50565b60405180910390f35b348015610267575f80fd5b50610282600480360381019061027d91906128e9565b6108ca565b60405161028f9190612b7b565b60405180910390f35b3480156102a3575f80fd5b506102be60048036038101906102b99190612cf1565b610a33565b005b3480156102cb575f80fd5b506102d4610c41565b6040516102e19190612a37565b60405180910390f35b3480156102f5575f80fd5b50610310600480360381019061030b9190612d4b565b610c4c565b60405161032296959493929190612d76565b60405180910390f35b348015610336575f80fd5b5061033f610d16565b60405161034c9190612a37565b60405180910390f35b348015610360575f80fd5b50610369610d1c565b6040516103769190612a37565b60405180910390f35b34801561038a575f80fd5b506103a560048036038101906103a091906128e9565b610d21565b005b6103c160048036038101906103bc9190612d4b565b610e5e565b005b3480156103ce575f80fd5b506103e960048036038101906103e491906128e9565b6112f7565b6040516103f69190612a37565b60405180910390f35b34801561040a575f80fd5b50610425600480360381019061042091906128e9565b611444565b6040516104329190612a37565b60405180910390f35b348015610446575f80fd5b50610461600480360381019061045c9190612ddc565b61148a565b005b34801561046e575f80fd5b50610489600480360381019061048491906128e9565b61162a565b6040516104969190612a37565b60405180910390f35b3480156104aa575f80fd5b506104c560048036038101906104c09190612d4b565b61163f565b6040516104d9989796959493929190612e1a565b60405180910390f35b3480156104ed575f80fd5b50610508600480360381019061050391906128e9565b6116ae565b6040516105159190612e96565b60405180910390f35b348015610529575f80fd5b50610544600480360381019061053f9190612eaf565b611703565b005b348015610551575f80fd5b5061055a61194a565b6040516105679190612a37565b60405180910390f35b34801561057b575f80fd5b50610584611950565b6040516105919190612a37565b60405180910390f35b3480156105a5575f80fd5b506105c060048036038101906105bb9190612d4b565b61195e565b6040516105cd919061303f565b60405180910390f35b3480156105e1575f80fd5b506105fc60048036038101906105f791906128e9565b611ba5565b604051610609919061303f565b60405180910390f35b34801561061d575f80fd5b5061063860048036038101906106339190612d4b565b611e20565b005b348015610645575f80fd5b50610660600480360381019061065b91906128e9565b6122b2565b60405161066d9190612e96565b60405180910390f35b348015610681575f80fd5b5061068a612401565b6040516106979190613107565b60405180910390f35b3480156106ab575f80fd5b506106b46124a7565b6040516106c1919061303f565b60405180910390f35b3480156106d5575f80fd5b506106f060048036038101906106eb9190612d4b565b61261d565b6040516106fd91906131ad565b60405180910390f35b348015610711575f80fd5b5061071a61277b565b60405161072791906131cd565b60405180910390f35b34801561073b575f80fd5b50610756600480360381019061075191906128e9565b61279e565b6040516107639190612a37565b60405180910390f35b6005602052805f5260405f205f91509050805f015f9054906101000a900473ffffffffffffffffffffffffffffffffffffffff16908060010180546107b090613213565b80601f01602080910402602001604051908101604052809291908181526020018280546107dc90613213565b80156108275780601f106107fe57610100808354040283529160200191610827565b820191905f5260205f20905b81548152906001019060200180831161080a57829003601f168201915b505050505090806002015f9054906101000a900460ff16908060030154908060040154905085565b60025481565b5f805f805f80600190505b60035481116108b05760065f8281526020019081526020015f206005015f9054906101000a900460ff1661089d57818061089990613270565b9250505b80806108a890613270565b915050610860565b506001546002546003548394509450945094505090919293565b6108d26127b3565b60055f8373ffffffffffffffffffffffffffffffffffffffff1673ffffffffffffffffffffffffffffffffffffffff1681526020019081526020015f206040518060a00160405290815f82015f9054906101000a900473ffffffffffffffffffffffffffffffffffffffff1673ffffffffffffffffffffffffffffffffffffffff1673ffffffffffffffffffffffffffffffffffffffff16815260200160018201805461097e90613213565b80601f01602080910402602001604051908101604052809291908181526020018280546109aa90613213565b80156109f55780601f106109cc576101008083540402835291602001916109f5565b820191905f5260205f20905b8154815290600101906020018083116109d857829003601f168201915b50505050508152602001600282015f9054906101000a900460ff16151515158152602001600382015481526020016004820154815250509050919050565b5f8054906101000a900473ffffffffffffffffffffffffffffffffffffffff1673ffffffffffffffffffffffffffffffffffffffff163373ffffffffffffffffffffffffffffffffffffffff1614610ac0576040517f08c379a0000000000000000000000000000000000000000000000000000000008152600401610ab790613327565b60405180910390fd5b5f825111610b03576040517f08c379a0000000000000000000000000000000000000000000000000000000008152600401610afa9061338f565b60405180910390fd5b5f8111610b45576040517f08c379a0000000000000000000000000000000000000000000000000000000008152600401610b3c906133f7565b60405180910390fd5b60015f815480929190610b5790613270565b91905055506040518060c0016040528060015481526020018381526020018281526020018281526020016001151581526020014281525060045f60015481526020019081526020015f205f820151815f01556020820151816001019081610bbe91906135b2565b5060408201518160020155606082015181600301556080820151816004015f6101000a81548160ff02191690831515021790555060a082015181600501559050506001547ff58a0390aa55f63e4f15809a0f7a46eeec963676bb985c76cfd09f3a08e2287b838342604051610c3593929190613681565b60405180910390a25050565b66038d7ea4c6800081565b6004602052805f5260405f205f91509050805f015490806001018054610c7190613213565b80601f0160208091040260200160405190810160405280929190818152602001828054610c9d90613213565b8015610ce85780601f10610cbf57610100808354040283529160200191610ce8565b820191905f5260205f20905b815481529060010190602001808311610ccb57829003601f168201915b505050505090806002015490806003015490806004015f9054906101000a900460ff16908060050154905086565b60035481565b603c81565b5f8054906101000a900473ffffffffffffffffffffffffffffffffffffffff1673ffffffffffffffffffffffffffffffffffffffff163373ffffffffffffffffffffffffffffffffffffffff1614610dae576040517f08c379a0000000000000000000000000000000000000000000000000000000008152600401610da590613327565b60405180910390fd5b5f73ffffffffffffffffffffffffffffffffffffffff168173ffffffffffffffffffffffffffffffffffffffff1603610e1c576040517f08c379a0000000000000000000000000000000000000000000000000000000008152600401610e1390613707565b60405180910390fd5b805f806101000a81548173ffffffffffffffffffffffffffffffffffffffff021916908373ffffffffffffffffffffffffffffffffffffffff16021790555050565b60055f3373ffffffffffffffffffffffffffffffffffffffff1673ffffffffffffffffffffffffffffffffffffffff1681526020019081526020015f206002015f9054906101000a900460ff16610eea576040517f08c379a0000000000000000000000000000000000000000000000000000000008152600401610ee190613795565b60405180910390fd5b8060045f8281526020019081526020015f206004015f9054906101000a900460ff16610f4b576040517f08c379a0000000000000000000000000000000000000000000000000000000008152600401610f42906137fd565b60405180910390fd5b5f60045f8481526020019081526020015f206002015411610fa1576040517f08c379a0000000000000000000000000000000000000000000000000000000008152600401610f9890613865565b60405180910390fd5b5f60075f3373ffffffffffffffffffffffffffffffffffffffff1673ffffffffffffffffffffffffffffffffffffffff1681526020019081526020015f205414611020576040517f08c379a0000000000000000000000000000000000000000000000000000000008152600401611017906138f3565b60405180910390fd5b66038d7ea4c6800034101561106a576040517f08c379a00000000000000000000000000000000000000000000000000000000081526004016110619061395b565b60405180910390fd5b60045f8381526020019081526020015f206002015f81548092919061108e90613979565b91905055508160075f3373ffffffffffffffffffffffffffffffffffffffff1673ffffffffffffffffffffffffffffffffffffffff1681526020019081526020015f20819055503460085f3373ffffffffffffffffffffffffffffffffffffffff1673ffffffffffffffffffffffffffffffffffffffff1681526020019081526020015f20819055505f603c4261112591906139a0565b905060035f81548092919061113990613270565b919050555060405180610100016040528060035481526020013373ffffffffffffffffffffffffffffffffffffffff1681526020018481526020014281526020015f81526020015f151581526020018281526020013481525060065f60035481526020019081526020015f205f820151815f01556020820151816001015f6101000a81548173ffffffffffffffffffffffffffffffffffffffff021916908373ffffffffffffffffffffffffffffffffffffffff16021790555060408201518160020155606082015181600301556080820151816004015560a0820151816005015f6101000a81548160ff02191690831515021790555060c0820151816006015560e0820151816007015590505060055f3373ffffffffffffffffffffffffffffffffffffffff1673ffffffffffffffffffffffffffffffffffffffff1681526020019081526020015f206004015f81548092919061129790613270565b9190505550823373ffffffffffffffffffffffffffffffffffffffff166003547fc947884e43ba44323dfe09b52225a1cb0d0ea02fda7aaa6ef325608f8af4c9b14234866040516112ea939291906139d3565b60405180910390a4505050565b5f8060075f8473ffffffffffffffffffffffffffffffffffffffff1673ffffffffffffffffffffffffffffffffffffffff1681526020019081526020015f205490505f8103611349575f91505061143f565b5f60035490505b60018110611439578373ffffffffffffffffffffffffffffffffffffffff1660065f8381526020019081526020015f206001015f9054906101000a900473ffffffffffffffffffffffffffffffffffffffff1673ffffffffffffffffffffffffffffffffffffffff161480156113d957508160065f8381526020019081526020015f2060020154145b8015611403575060065f8281526020019081526020015f206005015f9054906101000a900460ff16155b156114265760065f8281526020019081526020015f20600601549250505061143f565b808061143190613979565b915050611350565b505f9150505b919050565b5f60075f8373ffffffffffffffffffffffffffffffffffffffff1673ffffffffffffffffffffffffffffffffffffffff1681526020019081526020015f20549050919050565b5f8054906101000a900473ffffffffffffffffffffffffffffffffffffffff1673ffffffffffffffffffffffffffffffffffffffff163373ffffffffffffffffffffffffffffffffffffffff1614611517576040517f08c379a000000000000000000000000000000000000000000000000000000000815260040161150e90613327565b60405180910390fd5b8160045f8281526020019081526020015f206004015f9054906101000a900460ff16611578576040517f08c379a000000000000000000000000000000000000000000000000000000000815260040161156f906137fd565b60405180910390fd5b5f8210156115bb576040517f08c379a00000000000000000000000000000000000000000000000000000000081526004016115b290613a52565b60405180910390fd5b8160045f8581526020019081526020015f20600201819055508160045f8581526020019081526020015f2060030181905550827febcfd4ce21b6aefd071d3e0f4bfa57e491b5308a1ffb5a3a8e4805e23f00b8d78360405161161d9190612a37565b60405180910390a2505050565b6007602052805f5260405f205f915090505481565b6006602052805f5260405f205f91509050805f015490806001015f9054906101000a900473ffffffffffffffffffffffffffffffffffffffff1690806002015490806003015490806004015490806005015f9054906101000a900460ff16908060060154908060070154905088565b5f60055f8373ffffffffffffffffffffffffffffffffffffffff1673ffffffffffffffffffffffffffffffffffffffff1681526020019081526020015f206002015f9054906101000a900460ff169050919050565b60055f3373ffffffffffffffffffffffffffffffffffffffff1673ffffffffffffffffffffffffffffffffffffffff1681526020019081526020015f206002015f9054906101000a900460ff1615611790576040517f08c379a000000000000000000000000000000000000000000000000000000000815260040161178790613ae0565b60405180910390fd5b5f8151116117d3576040517f08c379a00000000000000000000000000000000000000000000000000000000081526004016117ca90613b48565b60405180910390fd5b60025f8154809291906117e590613270565b91905055506040518060a001604052803373ffffffffffffffffffffffffffffffffffffffff1681526020018281526020016001151581526020014281526020015f81525060055f3373ffffffffffffffffffffffffffffffffffffffff1673ffffffffffffffffffffffffffffffffffffffff1681526020019081526020015f205f820151815f015f6101000a81548173ffffffffffffffffffffffffffffffffffffffff021916908373ffffffffffffffffffffffffffffffffffffffff16021790555060208201518160010190816118c091906135b2565b506040820151816002015f6101000a81548160ff02191690831515021790555060608201518160030155608082015181600401559050503373ffffffffffffffffffffffffffffffffffffffff167fb6f8cd4c909b1e70493f5c9a6c487e4924194c208ddd113dd7d671cb4905809c824260405161193f929190613b66565b60405180910390a250565b60015481565b5f66038d7ea4c68000905090565b60608160045f8281526020019081526020015f206004015f9054906101000a900460ff166119c1576040517f08c379a00000000000000000000000000000000000000000000000000000000081526004016119b8906137fd565b60405180910390fd5b5f80600190505b6003548111611a0e578460065f8381526020019081526020015f2060020154036119fb5781806119f790613270565b9250505b8080611a0690613270565b9150506119c8565b505f8167ffffffffffffffff811115611a2a57611a29612ba3565b5b604051908082528060200260200182016040528015611a6357816020015b611a506127f6565b815260200190600190039081611a485790505b5090505f80600190505b6003548111611b98578660065f8381526020019081526020015f206002015403611b855760065f8281526020019081526020015f20604051806101000160405290815f8201548152602001600182015f9054906101000a900473ffffffffffffffffffffffffffffffffffffffff1673ffffffffffffffffffffffffffffffffffffffff1673ffffffffffffffffffffffffffffffffffffffff168152602001600282015481526020016003820154815260200160048201548152602001600582015f9054906101000a900460ff1615151515815260200160068201548152602001600782015481525050838381518110611b6b57611b6a613b94565b5b60200260200101819052508180611b8190613270565b9250505b8080611b9090613270565b915050611a6d565b5081945050505050919050565b60605f80600190505b6003548111611c3f578373ffffffffffffffffffffffffffffffffffffffff1660065f8381526020019081526020015f206001015f9054906101000a900473ffffffffffffffffffffffffffffffffffffffff1673ffffffffffffffffffffffffffffffffffffffff1603611c2c578180611c2890613270565b9250505b8080611c3790613270565b915050611bae565b505f8167ffffffffffffffff811115611c5b57611c5a612ba3565b5b604051908082528060200260200182016040528015611c9457816020015b611c816127f6565b815260200190600190039081611c795790505b5090505f80600190505b6003548111611e14578573ffffffffffffffffffffffffffffffffffffffff1660065f8381526020019081526020015f206001015f9054906101000a900473ffffffffffffffffffffffffffffffffffffffff1673ffffffffffffffffffffffffffffffffffffffff1603611e015760065f8281526020019081526020015f20604051806101000160405290815f8201548152602001600182015f9054906101000a900473ffffffffffffffffffffffffffffffffffffffff1673ffffffffffffffffffffffffffffffffffffffff1673ffffffffffffffffffffffffffffffffffffffff168152602001600282015481526020016003820154815260200160048201548152602001600582015f9054906101000a900460ff1615151515815260200160068201548152602001600782015481525050838381518110611de757611de6613b94565b5b60200260200101819052508180611dfd90613270565b9250505b8080611e0c90613270565b915050611c9e565b50819350505050919050565b60055f3373ffffffffffffffffffffffffffffffffffffffff1673ffffffffffffffffffffffffffffffffffffffff1681526020019081526020015f206002015f9054906101000a900460ff16611eac576040517f08c379a0000000000000000000000000000000000000000000000000000000008152600401611ea390613795565b60405180910390fd5b8060045f8281526020019081526020015f206004015f9054906101000a900460ff16611f0d576040517f08c379a0000000000000000000000000000000000000000000000000000000008152600401611f04906137fd565b60405180910390fd5b8160075f3373ffffffffffffffffffffffffffffffffffffffff1673ffffffffffffffffffffffffffffffffffffffff1681526020019081526020015f205414611f8c576040517f08c379a0000000000000000000000000000000000000000000000000000000008152600401611f8390613c0b565b60405180910390fd5b5f60085f3373ffffffffffffffffffffffffffffffffffffffff1673ffffffffffffffffffffffffffffffffffffffff1681526020019081526020015f205490505f811161200f576040517f08c379a000000000000000000000000000000000000000000000000000000000815260040161200690613c99565b60405180910390fd5b60045f8481526020019081526020015f206002015f81548092919061203390613270565b91905055505f8060035490505b600181106121da573373ffffffffffffffffffffffffffffffffffffffff1660065f8381526020019081526020015f206001015f9054906101000a900473ffffffffffffffffffffffffffffffffffffffff1673ffffffffffffffffffffffffffffffffffffffff161480156120c957508460065f8381526020019081526020015f2060020154145b80156120f3575060065f8281526020019081526020015f206005015f9054906101000a900460ff16155b156121c7574260065f8381526020019081526020015f2060040181905550600160065f8381526020019081526020015f206005015f6101000a81548160ff02191690831515021790555060065f8281526020019081526020015f2060060154421161216057829150612170565b60028361216d9190613ce4565b91505b843373ffffffffffffffffffffffffffffffffffffffff16827fd7e83ab51100c5a59ba62d513acdc01ced6b2105e4a08ba932d069f696248d9f42866040516121ba929190613d14565b60405180910390a46121da565b80806121d290613979565b915050612040565b505f60075f3373ffffffffffffffffffffffffffffffffffffffff1673ffffffffffffffffffffffffffffffffffffffff1681526020019081526020015f20819055505f60085f3373ffffffffffffffffffffffffffffffffffffffff1673ffffffffffffffffffffffffffffffffffffffff1681526020019081526020015f20819055505f8111156122ac573373ffffffffffffffffffffffffffffffffffffffff166108fc8290811502906040515f60405180830381858888f193505050501580156122aa573d5f803e3d5ffd5b505b50505050565b5f8060075f8473ffffffffffffffffffffffffffffffffffffffff1673ffffffffffffffffffffffffffffffffffffffff1681526020019081526020015f205490505f8103612304575f9150506123fc565b5f60035490505b600181106123f6578373ffffffffffffffffffffffffffffffffffffffff1660065f8381526020019081526020015f206001015f9054906101000a900473ffffffffffffffffffffffffffffffffffffffff1673ffffffffffffffffffffffffffffffffffffffff1614801561239457508160065f8381526020019081526020015f2060020154145b80156123be575060065f8281526020019081526020015f206005015f9054906101000a900460ff16155b156123e35760065f8281526020019081526020015f20600601544211925050506123fc565b80806123ee90613979565b91505061230b565b505f9150505b919050565b60605f60015467ffffffffffffffff8111156124205761241f612ba3565b5b60405190808252806020026020018201604052801561244e5781602001602082028036833780820191505090505b5090505f600190505b600154811161249f57808260018361246f9190613d3b565b815181106124805761247f613b94565b5b602002602001018181525050808061249790613270565b915050612457565b508091505090565b60605f60035467ffffffffffffffff8111156124c6576124c5612ba3565b5b6040519080825280602002602001820160405280156124ff57816020015b6124ec6127f6565b8152602001906001900390816124e45790505b5090505f600190505b60035481116126155760065f8281526020019081526020015f20604051806101000160405290815f8201548152602001600182015f9054906101000a900473ffffffffffffffffffffffffffffffffffffffff1673ffffffffffffffffffffffffffffffffffffffff1673ffffffffffffffffffffffffffffffffffffffff168152602001600282015481526020016003820154815260200160048201548152602001600582015f9054906101000a900460ff1615151515815260200160068201548152602001600782015481525050826001836125e69190613d3b565b815181106125f7576125f6613b94565b5b6020026020010181905250808061260d90613270565b915050612508565b508091505090565b61262561284b565b8160045f8281526020019081526020015f206004015f9054906101000a900460ff16612686576040517f08c379a000000000000000000000000000000000000000000000000000000000815260040161267d906137fd565b60405180910390fd5b60045f8481526020019081526020015f206040518060c00160405290815f82015481526020016001820180546126bb90613213565b80601f01602080910402602001604051908101604052809291908181526020018280546126e790613213565b80156127325780601f1061270957610100808354040283529160200191612732565b820191905f5260205f20905b81548152906001019060200180831161271557829003601f168201915b505050505081526020016002820154815260200160038201548152602001600482015f9054906101000a900460ff16151515158152602001600582015481525050915050919050565b5f8054906101000a900473ffffffffffffffffffffffffffffffffffffffff1681565b6008602052805f5260405f205f915090505481565b6040518060a001604052805f73ffffffffffffffffffffffffffffffffffffffff168152602001606081526020015f151581526020015f81526020015f81525090565b6040518061010001604052805f81526020015f73ffffffffffffffffffffffffffffffffffffffff1681526020015f81526020015f81526020015f81526020015f151581526020015f81526020015f81525090565b6040518060c001604052805f8152602001606081526020015f81526020015f81526020015f151581526020015f81525090565b5f604051905090565b5f80fd5b5f80fd5b5f73ffffffffffffffffffffffffffffffffffffffff82169050919050565b5f6128b88261288f565b9050919050565b6128c8816128ae565b81146128d2575f80fd5b50565b5f813590506128e3816128bf565b92915050565b5f602082840312156128fe576128fd612887565b5b5f61290b848285016128d5565b91505092915050565b61291d816128ae565b82525050565b5f81519050919050565b5f82825260208201905092915050565b5f5b8381101561295a57808201518184015260208101905061293f565b5f8484015250505050565b5f601f19601f8301169050919050565b5f61297f82612923565b612989818561292d565b935061299981856020860161293d565b6129a281612965565b840191505092915050565b5f8115159050919050565b6129c1816129ad565b82525050565b5f819050919050565b6129d9816129c7565b82525050565b5f60a0820190506129f25f830188612914565b8181036020830152612a048187612975565b9050612a1360408301866129b8565b612a2060608301856129d0565b612a2d60808301846129d0565b9695505050505050565b5f602082019050612a4a5f8301846129d0565b92915050565b5f608082019050612a635f8301876129d0565b612a7060208301866129d0565b612a7d60408301856129d0565b612a8a60608301846129d0565b95945050505050565b612a9c816128ae565b82525050565b5f82825260208201905092915050565b5f612abc82612923565b612ac68185612aa2565b9350612ad681856020860161293d565b612adf81612965565b840191505092915050565b612af3816129ad565b82525050565b612b02816129c7565b82525050565b5f60a083015f830151612b1d5f860182612a93565b5060208301518482036020860152612b358282612ab2565b9150506040830151612b4a6040860182612aea565b506060830151612b5d6060860182612af9565b506080830151612b706080860182612af9565b508091505092915050565b5f6020820190508181035f830152612b938184612b08565b905092915050565b5f80fd5b5f80fd5b7f4e487b71000000000000000000000000000000000000000000000000000000005f52604160045260245ffd5b612bd982612965565b810181811067ffffffffffffffff82111715612bf857612bf7612ba3565b5b80604052505050565b5f612c0a61287e565b9050612c168282612bd0565b919050565b5f67ffffffffffffffff821115612c3557612c34612ba3565b5b612c3e82612965565b9050602081019050919050565b828183375f83830152505050565b5f612c6b612c6684612c1b565b612c01565b905082815260208101848484011115612c8757612c86612b9f565b5b612c92848285612c4b565b509392505050565b5f82601f830112612cae57612cad612b9b565b5b8135612cbe848260208601612c59565b91505092915050565b612cd0816129c7565b8114612cda575f80fd5b50565b5f81359050612ceb81612cc7565b92915050565b5f8060408385031215612d0757612d06612887565b5b5f83013567ffffffffffffffff811115612d2457612d2361288b565b5b612d3085828601612c9a565b9250506020612d4185828601612cdd565b9150509250929050565b5f60208284031215612d6057612d5f612887565b5b5f612d6d84828501612cdd565b91505092915050565b5f60c082019050612d895f8301896129d0565b8181036020830152612d9b8188612975565b9050612daa60408301876129d0565b612db760608301866129d0565b612dc460808301856129b8565b612dd160a08301846129d0565b979650505050505050565b5f8060408385031215612df257612df1612887565b5b5f612dff85828601612cdd565b9250506020612e1085828601612cdd565b9150509250929050565b5f61010082019050612e2e5f83018b6129d0565b612e3b602083018a612914565b612e4860408301896129d0565b612e5560608301886129d0565b612e6260808301876129d0565b612e6f60a08301866129b8565b612e7c60c08301856129d0565b612e8960e08301846129d0565b9998505050505050505050565b5f602082019050612ea95f8301846129b8565b92915050565b5f60208284031215612ec457612ec3612887565b5b5f82013567ffffffffffffffff811115612ee157612ee061288b565b5b612eed84828501612c9a565b91505092915050565b5f81519050919050565b5f82825260208201905092915050565b5f819050602082019050919050565b61010082015f820151612f345f850182612af9565b506020820151612f476020850182612a93565b506040820151612f5a6040850182612af9565b506060820151612f6d6060850182612af9565b506080820151612f806080850182612af9565b5060a0820151612f9360a0850182612aea565b5060c0820151612fa660c0850182612af9565b5060e0820151612fb960e0850182612af9565b50505050565b5f612fca8383612f1f565b6101008301905092915050565b5f602082019050919050565b5f612fed82612ef6565b612ff78185612f00565b935061300283612f10565b805f5b838110156130325781516130198882612fbf565b975061302483612fd7565b925050600181019050613005565b5085935050505092915050565b5f6020820190508181035f8301526130578184612fe3565b905092915050565b5f81519050919050565b5f82825260208201905092915050565b5f819050602082019050919050565b5f6130938383612af9565b60208301905092915050565b5f602082019050919050565b5f6130b58261305f565b6130bf8185613069565b93506130ca83613079565b805f5b838110156130fa5781516130e18882613088565b97506130ec8361309f565b9250506001810190506130cd565b5085935050505092915050565b5f6020820190508181035f83015261311f81846130ab565b905092915050565b5f60c083015f83015161313c5f860182612af9565b50602083015184820360208601526131548282612ab2565b91505060408301516131696040860182612af9565b50606083015161317c6060860182612af9565b50608083015161318f6080860182612aea565b5060a08301516131a260a0860182612af9565b508091505092915050565b5f6020820190508181035f8301526131c58184613127565b905092915050565b5f6020820190506131e05f830184612914565b92915050565b7f4e487b71000000000000000000000000000000000000000000000000000000005f52602260045260245ffd5b5f600282049050600182168061322a57607f821691505b60208210810361323d5761323c6131e6565b5b50919050565b7f4e487b71000000000000000000000000000000000000000000000000000000005f52601160045260245ffd5b5f61327a826129c7565b91507fffffffffffffffffffffffffffffffffffffffffffffffffffffffffffffffff82036132ac576132ab613243565b5b600182019050919050565b7f48616e79612061646d696e2079616e672062697361206d656c616b756b616e205f8201527f616b736920696e69000000000000000000000000000000000000000000000000602082015250565b5f61331160288361292d565b915061331c826132b7565b604082019050919050565b5f6020820190508181035f83015261333e81613305565b9050919050565b7f49504653206861736820746964616b20626f6c6568206b6f736f6e67000000005f82015250565b5f613379601c8361292d565b915061338482613345565b602082019050919050565b5f6020820190508181035f8301526133a68161336d565b9050919050565b7f53746f6b206861727573206c65626968206461726920300000000000000000005f82015250565b5f6133e160178361292d565b91506133ec826133ad565b602082019050919050565b5f6020820190508181035f83015261340e816133d5565b9050919050565b5f819050815f5260205f209050919050565b5f6020601f8301049050919050565b5f82821b905092915050565b5f600883026134717fffffffffffffffffffffffffffffffffffffffffffffffffffffffffffffffff82613436565b61347b8683613436565b95508019841693508086168417925050509392505050565b5f819050919050565b5f6134b66134b16134ac846129c7565b613493565b6129c7565b9050919050565b5f819050919050565b6134cf8361349c565b6134e36134db826134bd565b848454613442565b825550505050565b5f90565b6134f76134eb565b6135028184846134c6565b505050565b5b818110156135255761351a5f826134ef565b600181019050613508565b5050565b601f82111561356a5761353b81613415565b61354484613427565b81016020851015613553578190505b61356761355f85613427565b830182613507565b50505b505050565b5f82821c905092915050565b5f61358a5f198460080261356f565b1980831691505092915050565b5f6135a2838361357b565b9150826002028217905092915050565b6135bb82612923565b67ffffffffffffffff8111156135d4576135d3612ba3565b5b6135de8254613213565b6135e9828285613529565b5f60209050601f83116001811461361a575f8415613608578287015190505b6136128582613597565b865550613679565b601f19841661362886613415565b5f5b8281101561364f5784890151825560018201915060208501945060208101905061362a565b8683101561366c5784890151613668601f89168261357b565b8355505b6001600288020188555050505b505050505050565b5f6060820190508181035f8301526136998186612975565b90506136a860208301856129d0565b6136b560408301846129d0565b949350505050565b7f416c616d61742061646d696e20746964616b2076616c696400000000000000005f82015250565b5f6136f160188361292d565b91506136fc826136bd565b602082019050919050565b5f6020820190508181035f83015261371e816136e5565b9050919050565b7f416e646120686172757320746572646166746172207365626167616920616e675f8201527f676f746100000000000000000000000000000000000000000000000000000000602082015250565b5f61377f60248361292d565b915061378a82613725565b604082019050919050565b5f6020820190508181035f8301526137ac81613773565b9050919050565b7f42756b7520746964616b20646974656d756b616e0000000000000000000000005f82015250565b5f6137e760148361292d565b91506137f2826137b3565b602082019050919050565b5f6020820190508181035f830152613814816137db565b9050919050565b7f53746f6b2062756b7520686162697300000000000000000000000000000000005f82015250565b5f61384f600f8361292d565b915061385a8261381b565b602082019050919050565b5f6020820190508181035f83015261387c81613843565b9050919050565b7f416e6461206d61736968206d656d696c696b692062756b752079616e672062655f8201527f6c756d2064696b656d62616c696b616e00000000000000000000000000000000602082015250565b5f6138dd60308361292d565b91506138e882613883565b604082019050919050565b5f6020820190508181035f83015261390a816138d1565b9050919050565b7f4465706f73697420746964616b206d656e63756b7570690000000000000000005f82015250565b5f61394560178361292d565b915061395082613911565b602082019050919050565b5f6020820190508181035f83015261397281613939565b9050919050565b5f613983826129c7565b91505f820361399557613994613243565b5b600182039050919050565b5f6139aa826129c7565b91506139b5836129c7565b92508282019050808211156139cd576139cc613243565b5b92915050565b5f6060820190506139e65f8301866129d0565b6139f360208301856129d0565b613a0060408301846129d0565b949350505050565b7f53746f6b20746964616b20626f6c6568206e65676174696600000000000000005f82015250565b5f613a3c60188361292d565b9150613a4782613a08565b602082019050919050565b5f6020820190508181035f830152613a6981613a30565b9050919050565b7f416e646120737564616820746572646166746172207365626167616920616e675f8201527f676f746100000000000000000000000000000000000000000000000000000000602082015250565b5f613aca60248361292d565b9150613ad582613a70565b604082019050919050565b5f6020820190508181035f830152613af781613abe565b9050919050565b7f4e616d6120746964616b20626f6c6568206b6f736f6e670000000000000000005f82015250565b5f613b3260178361292d565b9150613b3d82613afe565b602082019050919050565b5f6020820190508181035f830152613b5f81613b26565b9050919050565b5f6040820190508181035f830152613b7e8185612975565b9050613b8d60208301846129d0565b9392505050565b7f4e487b71000000000000000000000000000000000000000000000000000000005f52603260045260245ffd5b7f416e646120746964616b206d656d696e6a616d2062756b7520696e69000000005f82015250565b5f613bf5601c8361292d565b9150613c0082613bc1565b602082019050919050565b5f6020820190508181035f830152613c2281613be9565b9050919050565b7f546964616b20616461206465706f73697420756e74756b2064696b656d62616c5f8201527f696b616e00000000000000000000000000000000000000000000000000000000602082015250565b5f613c8360248361292d565b9150613c8e82613c29565b604082019050919050565b5f6020820190508181035f830152613cb081613c77565b9050919050565b7f4e487b71000000000000000000000000000000000000000000000000000000005f52601260045260245ffd5b5f613cee826129c7565b9150613cf9836129c7565b925082613d0957613d08613cb7565b5b828204905092915050565b5f604082019050613d275f8301856129d0565b613d3460208301846129d0565b9392505050565b5f613d45826129c7565b9150613d50836129c7565b9250828203905081811115613d6857613d67613243565b5b9291505056fea2646970667358221220e0554b913117e3587d7b1f1e528ddb199030d1e8273ec891ab35c98f919b726064736f6c63430008140033",
  "immutableReferences": {},
  "source": "// SPDX-License-Identifier: MIT\r\npragma solidity ^0.8.20;\r\n\r\n/**\r\n * @title Library\r\n * @dev Smart Contract untuk Sistem Perpustakaan Berbasis Blockchain\r\n * @notice Contract ini menyimpan data buku, anggota, dan riwayat peminjaman di Ethereum Sepolia\r\n * \r\n * ARSITEKTUR:\r\n * - Blockchain: Menyimpan transaksi dan CID IPFS\r\n * - IPFS (Pinata): Menyimpan metadata buku (JSON)\r\n * - Frontend: Web3.js untuk interaksi dengan contract\r\n */\r\ncontract Library {\r\n    \r\n    // ========== STATE VARIABLES ==========\r\n    \r\n    address public admin; // Alamat admin perpustakaan\r\n    uint public bookCount; // Total jumlah buku yang pernah ditambahkan\r\n    uint public memberCount; // Total jumlah anggota terdaftar\r\n    uint public borrowCount; // Total jumlah peminjaman yang pernah terjadi\r\n    \r\n    // Konstanta untuk testing: 1 menit = 1 ETH (dalam wei)\r\n    uint public constant BORROW_DURATION = 60; // 60 detik = 1 menit\r\n    uint public constant DEPOSIT_PER_MINUTE = 0.001 ether; // 0.001 ETH per menit\r\n    \r\n    // ========== STRUCTS ==========\r\n    \r\n    /**\r\n     * @dev Struct untuk menyimpan informasi buku\r\n     * @notice Hanya menyimpan CID IPFS, bukan metadata lengkap\r\n     */\r\n    struct Book {\r\n        uint id; // ID unik buku\r\n        string ipfsHash; // CID dari Pinata (metadata JSON)\r\n        uint stock; // Jumlah stok tersedia\r\n        uint totalCopies; // Total salinan buku\r\n        bool exists; // Flag untuk cek apakah buku ada\r\n        uint addedAt; // Timestamp saat buku ditambahkan\r\n    }\r\n    \r\n    /**\r\n     * @dev Struct untuk menyimpan informasi anggota\r\n     */\r\n    struct Member {\r\n        address memberAddress; // Alamat wallet anggota\r\n        string name; // Nama anggota\r\n        bool isRegistered; // Status registrasi\r\n        uint registeredAt; // Timestamp registrasi\r\n        uint totalBorrowed; // Total buku yang pernah dipinjam\r\n    }\r\n    \r\n    /**\r\n     * @dev Struct untuk menyimpan riwayat peminjaman\r\n     */\r\n    struct BorrowHistory {\r\n        uint borrowId; // ID unik peminjaman\r\n        address borrower; // Alamat peminjam\r\n        uint bookId; // ID buku yang dipinjam\r\n        uint borrowTime; // Waktu peminjaman\r\n        uint returnTime; // Waktu pengembalian (0 jika belum dikembalikan)\r\n        bool returned; // Status pengembalian\r\n        uint dueDate; // Waktu jatuh tempo (borrowTime + BORROW_DURATION)\r\n        uint deposit; // Jumlah deposit yang dibayarkan\r\n    }\r\n    \r\n    // ========== MAPPINGS ==========\r\n    \r\n    mapping(uint => Book) public books; // ID buku => Data buku\r\n    mapping(address => Member) public members; // Alamat => Data anggota\r\n    mapping(uint => BorrowHistory) public borrowHistory; // ID peminjaman => Riwayat\r\n    mapping(address => uint) public currentBorrow; // Alamat => ID buku yang sedang dipinjam (0 jika tidak ada)\r\n    mapping(address => uint) public deposits; // Alamat => Jumlah deposit yang disimpan\r\n    \r\n    // ========== EVENTS ==========\r\n    \r\n    event BookAdded(uint indexed bookId, string ipfsHash, uint stock, uint timestamp);\r\n    event MemberRegistered(address indexed memberAddress, string name, uint timestamp);\r\n    event BookBorrowed(uint indexed borrowId, address indexed borrower, uint indexed bookId, uint timestamp, uint deposit, uint dueDate);\r\n    event BookReturned(uint indexed borrowId, address indexed borrower, uint indexed bookId, uint timestamp, uint refundAmount);\r\n    event StockUpdated(uint indexed bookId, uint newStock);\r\n    \r\n    // ========== MODIFIERS ==========\r\n    \r\n    /**\r\n     * @dev Modifier untuk membatasi akses hanya untuk admin\r\n     */\r\n    modifier onlyAdmin() {\r\n        require(msg.sender == admin, \"Hanya admin yang bisa melakukan aksi ini\");\r\n        _;\r\n    }\r\n    \r\n    /**\r\n     * @dev Modifier untuk memastikan pengguna adalah anggota terdaftar\r\n     */\r\n    modifier onlyMember() {\r\n        require(members[msg.sender].isRegistered, \"Anda harus terdaftar sebagai anggota\");\r\n        _;\r\n    }\r\n    \r\n    /**\r\n     * @dev Modifier untuk memastikan buku ada\r\n     */\r\n    modifier bookExists(uint _bookId) {\r\n        require(books[_bookId].exists, \"Buku tidak ditemukan\");\r\n        _;\r\n    }\r\n    \r\n    // ========== CONSTRUCTOR ==========\r\n    \r\n    /**\r\n     * @dev Constructor - Set deployer sebagai admin\r\n     */\r\n    constructor() {\r\n        admin = msg.sender;\r\n        bookCount = 0;\r\n        memberCount = 0;\r\n        borrowCount = 0;\r\n    }\r\n    \r\n    // ========== BOOK MANAGEMENT FUNCTIONS ==========\r\n    \r\n    /**\r\n     * @dev Menambahkan buku baru ke perpustakaan\r\n     * @param _ipfsHash CID dari Pinata (metadata JSON buku)\r\n     * @param _stock Jumlah stok buku yang tersedia\r\n     * @notice Hanya admin yang bisa menambahkan buku\r\n     */\r\n    function addBook(string memory _ipfsHash, uint _stock) public onlyAdmin {\r\n        require(bytes(_ipfsHash).length > 0, \"IPFS hash tidak boleh kosong\");\r\n        require(_stock > 0, \"Stok harus lebih dari 0\");\r\n        \r\n        bookCount++;\r\n        \r\n        books[bookCount] = Book({\r\n            id: bookCount,\r\n            ipfsHash: _ipfsHash,\r\n            stock: _stock,\r\n            totalCopies: _stock,\r\n            exists: true,\r\n            addedAt: block.timestamp\r\n        });\r\n        \r\n        emit BookAdded(bookCount, _ipfsHash, _stock, block.timestamp);\r\n    }\r\n    \r\n    /**\r\n     * @dev Update stok buku\r\n     * @param _bookId ID buku yang akan diupdate\r\n     * @param _newStock Stok baru\r\n     */\r\n    function updateBookStock(uint _bookId, uint _newStock) public onlyAdmin bookExists(_bookId) {\r\n        require(_newStock >= 0, \"Stok tidak boleh negatif\");\r\n        \r\n        books[_bookId].stock = _newStock;\r\n        books[_bookId].totalCopies = _newStock;\r\n        \r\n        emit StockUpdated(_bookId, _newStock);\r\n    }\r\n    \r\n    /**\r\n     * @dev Mendapatkan informasi buku\r\n     * @param _bookId ID buku\r\n     * @return Book struct\r\n     */\r\n    function getBook(uint _bookId) public view bookExists(_bookId) returns (Book memory) {\r\n        return books[_bookId];\r\n    }\r\n    \r\n    /**\r\n     * @dev Mendapatkan semua ID buku yang tersedia\r\n     * @return Array of book IDs\r\n     */\r\n    function getAllBookIds() public view returns (uint[] memory) {\r\n        uint[] memory bookIds = new uint[](bookCount);\r\n        for (uint i = 1; i <= bookCount; i++) {\r\n            bookIds[i - 1] = i;\r\n        }\r\n        return bookIds;\r\n    }\r\n    \r\n    // ========== MEMBER MANAGEMENT FUNCTIONS ==========\r\n    \r\n    /**\r\n     * @dev Registrasi anggota baru\r\n     * @param _name Nama anggota\r\n     * @notice Setiap wallet hanya bisa registrasi sekali\r\n     */\r\n    function registerMember(string memory _name) public {\r\n        require(!members[msg.sender].isRegistered, \"Anda sudah terdaftar sebagai anggota\");\r\n        require(bytes(_name).length > 0, \"Nama tidak boleh kosong\");\r\n        \r\n        memberCount++;\r\n        \r\n        members[msg.sender] = Member({\r\n            memberAddress: msg.sender,\r\n            name: _name,\r\n            isRegistered: true,\r\n            registeredAt: block.timestamp,\r\n            totalBorrowed: 0\r\n        });\r\n        \r\n        emit MemberRegistered(msg.sender, _name, block.timestamp);\r\n    }\r\n    \r\n    /**\r\n     * @dev Mendapatkan informasi anggota\r\n     * @param _memberAddress Alamat wallet anggota\r\n     * @return Member struct\r\n     */\r\n    function getMember(address _memberAddress) public view returns (Member memory) {\r\n        return members[_memberAddress];\r\n    }\r\n    \r\n    /**\r\n     * @dev Cek apakah address adalah anggota terdaftar\r\n     * @param _memberAddress Alamat wallet yang akan dicek\r\n     * @return bool\r\n     */\r\n    function isMember(address _memberAddress) public view returns (bool) {\r\n        return members[_memberAddress].isRegistered;\r\n    }\r\n    \r\n    // ========== BORROWING FUNCTIONS ==========\r\n    \r\n    /**\r\n     * @dev Meminjam buku\r\n     * @param _bookId ID buku yang akan dipinjam\r\n     * @notice Anggota hanya bisa meminjam 1 buku dalam satu waktu\r\n     * @notice Memerlukan deposit sebesar DEPOSIT_PER_MINUTE\r\n     */\r\n    function borrowBook(uint _bookId) public payable onlyMember bookExists(_bookId) {\r\n        require(books[_bookId].stock > 0, \"Stok buku habis\");\r\n        require(currentBorrow[msg.sender] == 0, \"Anda masih memiliki buku yang belum dikembalikan\");\r\n        require(msg.value >= DEPOSIT_PER_MINUTE, \"Deposit tidak mencukupi\");\r\n        \r\n        // Update stok buku\r\n        books[_bookId].stock--;\r\n        \r\n        // Update current borrow\r\n        currentBorrow[msg.sender] = _bookId;\r\n        \r\n        // Simpan deposit\r\n        deposits[msg.sender] = msg.value;\r\n        \r\n        // Hitung due date (borrowTime + BORROW_DURATION)\r\n        uint dueDate = block.timestamp + BORROW_DURATION;\r\n        \r\n        // Tambah borrow count\r\n        borrowCount++;\r\n        \r\n        // Simpan riwayat peminjaman\r\n        borrowHistory[borrowCount] = BorrowHistory({\r\n            borrowId: borrowCount,\r\n            borrower: msg.sender,\r\n            bookId: _bookId,\r\n            borrowTime: block.timestamp,\r\n            returnTime: 0,\r\n            returned: false,\r\n            dueDate: dueDate,\r\n            deposit: msg.value\r\n        });\r\n        \r\n        // Update total borrowed member\r\n        members[msg.sender].totalBorrowed++;\r\n        \r\n        emit BookBorrowed(borrowCount, msg.sender, _bookId, block.timestamp, msg.value, dueDate);\r\n    }\r\n    \r\n    /**\r\n     * @dev Mengembalikan buku\r\n     * @param _bookId ID buku yang akan dikembalikan\r\n     * @notice Refund penuh jika tepat waktu, partial jika terlambat\r\n     */\r\n    function returnBook(uint _bookId) public onlyMember bookExists(_bookId) {\r\n        require(currentBorrow[msg.sender] == _bookId, \"Anda tidak meminjam buku ini\");\r\n        \r\n        uint depositAmount = deposits[msg.sender];\r\n        require(depositAmount > 0, \"Tidak ada deposit untuk dikembalikan\");\r\n        \r\n        // Update stok buku\r\n        books[_bookId].stock++;\r\n        \r\n        uint refundAmount = 0;\r\n        \r\n        // Cari borrow history yang aktif\r\n        for (uint i = borrowCount; i >= 1; i--) {\r\n            if (borrowHistory[i].borrower == msg.sender && \r\n                borrowHistory[i].bookId == _bookId && \r\n                !borrowHistory[i].returned) {\r\n                \r\n                borrowHistory[i].returnTime = block.timestamp;\r\n                borrowHistory[i].returned = true;\r\n                \r\n                // Hitung refund berdasarkan keterlambatan\r\n                if (block.timestamp <= borrowHistory[i].dueDate) {\r\n                    // Tepat waktu - refund penuh\r\n                    refundAmount = depositAmount;\r\n                } else {\r\n                    // Terlambat - refund 50%\r\n                    refundAmount = depositAmount / 2;\r\n                }\r\n                \r\n                emit BookReturned(i, msg.sender, _bookId, block.timestamp, refundAmount);\r\n                break;\r\n            }\r\n        }\r\n        \r\n        // Reset current borrow dan deposit\r\n        currentBorrow[msg.sender] = 0;\r\n        deposits[msg.sender] = 0;\r\n        \r\n        // Transfer refund ke peminjam\r\n        if (refundAmount > 0) {\r\n            payable(msg.sender).transfer(refundAmount);\r\n        }\r\n    }\r\n    \r\n    /**\r\n     * @dev Mendapatkan ID buku yang sedang dipinjam oleh user\r\n     * @param _memberAddress Alamat anggota\r\n     * @return uint ID buku (0 jika tidak ada)\r\n     */\r\n    function getCurrentBorrow(address _memberAddress) public view returns (uint) {\r\n        return currentBorrow[_memberAddress];\r\n    }\r\n    \r\n    // ========== HISTORY FUNCTIONS ==========\r\n    \r\n    /**\r\n     * @dev Mendapatkan semua riwayat peminjaman\r\n     * @return Array of BorrowHistory\r\n     */\r\n    function getAllBorrowHistory() public view returns (BorrowHistory[] memory) {\r\n        BorrowHistory[] memory history = new BorrowHistory[](borrowCount);\r\n        \r\n        for (uint i = 1; i <= borrowCount; i++) {\r\n            history[i - 1] = borrowHistory[i];\r\n        }\r\n        \r\n        return history;\r\n    }\r\n    \r\n    /**\r\n     * @dev Mendapatkan riwayat peminjaman user tertentu\r\n     * @param _memberAddress Alamat anggota\r\n     * @return Array of BorrowHistory\r\n     */\r\n    function getMemberBorrowHistory(address _memberAddress) public view returns (BorrowHistory[] memory) {\r\n        // Hitung jumlah peminjaman user\r\n        uint count = 0;\r\n        for (uint i = 1; i <= borrowCount; i++) {\r\n            if (borrowHistory[i].borrower == _memberAddress) {\r\n                count++;\r\n            }\r\n        }\r\n        \r\n        // Buat array dengan ukuran yang tepat\r\n        BorrowHistory[] memory memberHistory = new BorrowHistory[](count);\r\n        uint index = 0;\r\n        \r\n        for (uint i = 1; i <= borrowCount; i++) {\r\n            if (borrowHistory[i].borrower == _memberAddress) {\r\n                memberHistory[index] = borrowHistory[i];\r\n                index++;\r\n            }\r\n        }\r\n        \r\n        return memberHistory;\r\n    }\r\n    \r\n    /**\r\n     * @dev Mendapatkan riwayat peminjaman untuk buku tertentu\r\n     * @param _bookId ID buku\r\n     * @return Array of BorrowHistory\r\n     */\r\n    function getBookBorrowHistory(uint _bookId) public view bookExists(_bookId) returns (BorrowHistory[] memory) {\r\n        // Hitung jumlah peminjaman buku\r\n        uint count = 0;\r\n        for (uint i = 1; i <= borrowCount; i++) {\r\n            if (borrowHistory[i].bookId == _bookId) {\r\n                count++;\r\n            }\r\n        }\r\n        \r\n        // Buat array dengan ukuran yang tepat\r\n        BorrowHistory[] memory bookHistory = new BorrowHistory[](count);\r\n        uint index = 0;\r\n        \r\n        for (uint i = 1; i <= borrowCount; i++) {\r\n            if (borrowHistory[i].bookId == _bookId) {\r\n                bookHistory[index] = borrowHistory[i];\r\n                index++;\r\n            }\r\n        }\r\n        \r\n        return bookHistory;\r\n    }\r\n    \r\n    // ========== DEPOSIT & DURATION FUNCTIONS ==========\r\n    \r\n    /**\r\n     * @dev Menghitung deposit yang diperlukan untuk meminjam\r\n     * @return uint Jumlah deposit dalam wei\r\n     */\r\n    function calculateRequiredDeposit() public pure returns (uint) {\r\n        return DEPOSIT_PER_MINUTE;\r\n    }\r\n    \r\n    /**\r\n     * @dev Mengecek apakah peminjaman user sudah overdue\r\n     * @param _memberAddress Alamat anggota\r\n     * @return bool True jika overdue, false jika tidak\r\n     */\r\n    function isOverdue(address _memberAddress) public view returns (bool) {\r\n        uint currentBookId = currentBorrow[_memberAddress];\r\n        if (currentBookId == 0) return false;\r\n        \r\n        // Cari borrow history yang aktif\r\n        for (uint i = borrowCount; i >= 1; i--) {\r\n            if (borrowHistory[i].borrower == _memberAddress && \r\n                borrowHistory[i].bookId == currentBookId && \r\n                !borrowHistory[i].returned) {\r\n                return block.timestamp > borrowHistory[i].dueDate;\r\n            }\r\n        }\r\n        return false;\r\n    }\r\n    \r\n    /**\r\n     * @dev Mendapatkan due date untuk peminjaman aktif user\r\n     * @param _memberAddress Alamat anggota\r\n     * @return uint Due date timestamp (0 jika tidak ada peminjaman aktif)\r\n     */\r\n    function getDueDate(address _memberAddress) public view returns (uint) {\r\n        uint currentBookId = currentBorrow[_memberAddress];\r\n        if (currentBookId == 0) return 0;\r\n        \r\n        // Cari borrow history yang aktif\r\n        for (uint i = borrowCount; i >= 1; i--) {\r\n            if (borrowHistory[i].borrower == _memberAddress && \r\n                borrowHistory[i].bookId == currentBookId && \r\n                !borrowHistory[i].returned) {\r\n                return borrowHistory[i].dueDate;\r\n            }\r\n        }\r\n        return 0;\r\n    }\r\n    \r\n    // ========== UTILITY FUNCTIONS ==========\r\n    \r\n    /**\r\n     * @dev Transfer admin ke address lain\r\n     * @param _newAdmin Alamat admin baru\r\n     */\r\n    function transferAdmin(address _newAdmin) public onlyAdmin {\r\n        require(_newAdmin != address(0), \"Alamat admin tidak valid\");\r\n        admin = _newAdmin;\r\n    }\r\n    \r\n    /**\r\n     * @dev Mendapatkan statistik perpustakaan\r\n     * @return totalBooks, totalMembers, totalBorrows, activeLoans\r\n     */\r\n    function getLibraryStats() public view returns (uint, uint, uint, uint) {\r\n        // Hitung active loans\r\n        uint activeLoans = 0;\r\n        for (uint i = 1; i <= borrowCount; i++) {\r\n            if (!borrowHistory[i].returned) {\r\n                activeLoans++;\r\n            }\r\n        }\r\n        \r\n        return (bookCount, memberCount, borrowCount, activeLoans);\r\n    }\r\n}\r\n",
  "sourcePath": "E:\\blockhain TA\\library-blockchain\\contracts\\Library.sol",
  "compiler": {
    "name": "solc",
    "version": "0.8.20+commit.a1b79de6.Emscripten.clang"
  },
  "schemaVersion": "3.4.16",
  "updatedAt": "2026-01-15T08:31:10.706Z",
  "devdoc": {
    "details": "Smart Contract untuk Sistem Perpustakaan Berbasis Blockchain",
    "kind": "dev",
    "methods": {
      "addBook(string,uint256)": {
        "details": "Menambahkan buku baru ke perpustakaan",
        "params": {
          "_ipfsHash": "CID dari Pinata (metadata JSON buku)",
          "_stock": "Jumlah stok buku yang tersedia"
        }
      },
      "borrowBook(uint256)": {
        "details": "Meminjam buku",
        "params": {
          "_bookId": "ID buku yang akan dipinjam"
        }
      },
      "calculateRequiredDeposit()": {
        "details": "Menghitung deposit yang diperlukan untuk meminjam",
        "returns": {
          "_0": "uint Jumlah deposit dalam wei"
        }
      },
      "constructor": {
        "details": "Constructor - Set deployer sebagai admin"
      },
      "getAllBookIds()": {
        "details": "Mendapatkan semua ID buku yang tersedia",
        "returns": {
          "_0": "Array of book IDs"
        }
      },
      "getAllBorrowHistory()": {
        "details": "Mendapatkan semua riwayat peminjaman",
        "returns": {
          "_0": "Array of BorrowHistory"
        }
      },
      "getBook(uint256)": {
        "details": "Mendapatkan informasi buku",
        "params": {
          "_bookId": "ID buku"
        },
        "returns": {
          "_0": "Book struct"
        }
      },
      "getBookBorrowHistory(uint256)": {
        "details": "Mendapatkan riwayat peminjaman untuk buku tertentu",
        "params": {
          "_bookId": "ID buku"
        },
        "returns": {
          "_0": "Array of BorrowHistory"
        }
      },
      "getCurrentBorrow(address)": {
        "details": "Mendapatkan ID buku yang sedang dipinjam oleh user",
        "params": {
          "_memberAddress": "Alamat anggota"
        },
        "returns": {
          "_0": "uint ID buku (0 jika tidak ada)"
        }
      },
      "getDueDate(address)": {
        "details": "Mendapatkan due date untuk peminjaman aktif user",
        "params": {
          "_memberAddress": "Alamat anggota"
        },
        "returns": {
          "_0": "uint Due date timestamp (0 jika tidak ada peminjaman aktif)"
        }
      },
      "getLibraryStats()": {
        "details": "Mendapatkan statistik perpustakaan",
        "returns": {
          "_0": "totalBooks, totalMembers, totalBorrows, activeLoans"
        }
      },
      "getMember(address)": {
        "details": "Mendapatkan informasi anggota",
        "params": {
          "_memberAddress": "Alamat wallet anggota"
        },
        "returns": {
          "_0": "Member struct"
        }
      },
      "getMemberBorrowHistory(address)": {
        "details": "Mendapatkan riwayat peminjaman user tertentu",
        "params": {
          "_memberAddress": "Alamat anggota"
        },
        "returns": {
          "_0": "Array of BorrowHistory"
        }
      },
      "isMember(address)": {
        "details": "Cek apakah address adalah anggota terdaftar",
        "params": {
          "_memberAddress": "Alamat wallet yang akan dicek"
        },
        "returns": {
          "_0": "bool"
        }
      },
      "isOverdue(address)": {
        "details": "Mengecek apakah peminjaman user sudah overdue",
        "params": {
          "_memberAddress": "Alamat anggota"
        },
        "returns": {
          "_0": "bool True jika overdue, false jika tidak"
        }
      },
      "registerMember(string)": {
        "details": "Registrasi anggota baru",
        "params": {
          "_name": "Nama anggota"
        }
      },
      "returnBook(uint256)": {
        "details": "Mengembalikan buku",
        "params": {
          "_bookId": "ID buku yang akan dikembalikan"
        }
      },
      "transferAdmin(address)": {
        "details": "Transfer admin ke address lain",
        "params": {
          "_newAdmin": "Alamat admin baru"
        }
      },
      "updateBookStock(uint256,uint256)": {
        "details": "Update stok buku",
        "params": {
          "_bookId": "ID buku yang akan diupdate",
          "_newStock": "Stok baru"
        }
      }
    },
    "title": "Library",
    "version": 1
  },
  "userdoc": {
    "kind": "user",
    "methods": {
      "addBook(string,uint256)": {
        "notice": "Hanya admin yang bisa menambahkan buku"
      },
      "borrowBook(uint256)": {
        "notice": "Anggota hanya bisa meminjam 1 buku dalam satu waktuMemerlukan deposit sebesar DEPOSIT_PER_MINUTE"
      },
      "registerMember(string)": {
        "notice": "Setiap wallet hanya bisa registrasi sekali"
      },
      "returnBook(uint256)": {
        "notice": "Refund penuh jika tepat waktu, partial jika terlambat"
      }
    },
    "notice": "Contract ini menyimpan data buku, anggota, dan riwayat peminjaman di Ethereum Sepolia  ARSITEKTUR: - Blockchain: Menyimpan transaksi dan CID IPFS - IPFS (Pinata): Menyimpan metadata buku (JSON) - Frontend: Web3.js untuk interaksi dengan contract",
    "version": 1
  }
}